:020000040000fa
:080000000001040000000000f3
:020000040000fa
:04000800c80100002b
:020000040000fa
:04000c00c801000027
:020000040000fa
:04001000c801000023
:020000040000fa
:04001400c80100001f
:020000040000fa
:04001800c80100001b
:020000040000fa
:04001c00c801000017
:020000040000fa
:04002000c801000013
:020000040000fa
:04002400c80100000f
:020000040000fa
:04002800c80100000b
:020000040000fa
:04002c00c801000007
:020000040000fa
:04003000c801000003
:020000040000fa
:04003400c8010000ff
:020000040000fa
:04003800c8010000fb
:020000040000fa
:04003c00c8010000f7
:020000040000fa
:04004000c8010000f3
:020000040000fa
:04004400c8010000ef
:020000040000fa
:04004800c8010000eb
:020000040000fa
:04004c00c8010000e7
:020000040000fa
:04005000c8010000e3
:020000040000fa
:04005400c8010000df
:020000040000fa
:04005800c8010000db
:020000040000fa
:04005c00c8010000d7
:020000040000fa
:04006000c8010000d3
:020000040000fa
:04006400c8010000cf
:020000040000fa
:04006800c8010000cb
:020000040000fa
:04006c00c8010000c7
:020000040000fa
:04007000c8010000c3
:020000040000fa
:04007400c8010000bf
:020000040000fa
:04007800c8010000bb
:020000040000fa
:04007c00c8010000b7
:020000040000fa
:04008000c8010000b3
:020000040000fa
:04008400c8010000af
:020000040000fa
:04008800c8010000ab
:020000040000fa
:04008c00c8010000a7
:020000040000fa
:04009000c8010000a3
:020000040000fa
:04009400c80100009f
:020000040000fa
:04009800c80100009b
:020000040000fa
:04009c00c801000097
:020000040000fa
:0400a000c801000093
:020000040000fa
:0400a400c80100008f
:020000040000fa
:0400a800c80100008b
:020000040000fa
:0400ac00c801000087
:020000040000fa
:0400b000c801000083
:020000040000fa
:0400b400c80100007f
:020000040000fa
:0400b800c80100007b
:020000040000fa
:0400bc00c801000077
:020000040000fa
:0400c000c801000073
:020000040000fa
:0400c400c80100006f
:020000040000fa
:0400c800c80100006b
:020000040000fa
:0400cc00c801000067
:020000040000fa
:0400d000c801000063
:020000040000fa
:0400d400c80100005f
:020000040000fa
:0400d800c80100005b
:020000040000fa
:04010800c80100002a
:020000040000fa
:04010c00c801000026
:020000040000fa
:04011000c801000022
:020000040000fa
:04011400c80100001e
:020000040000fa
:04011800c80100001a
:020000040000fa
:04011c00c801000016
:020000040000fa
:04012000c801000012
:020000040000fa
:04012400c80100000e
:020000040000fa
:04012800c80100000a
:020000040000fa
:04012c00c801000006
:020000040000fa
:04013000c801000002
:020000040000fa
:04013400c8010000fe
:020000040000fa
:04013800c8010000fa
:020000040000fa
:04013c00c8010000f6
:020000040000fa
:04014000c8010000f2
:020000040000fa
:04014400c8010000ee
:020000040000fa
:04014800c8010000ea
:020000040000fa
:04014c00c8010000e6
:020000040000fa
:04015000c8010000e2
:020000040000fa
:04015400c8010000de
:020000040000fa
:04015800c8010000da
:020000040000fa
:04015c00c8010000d6
:020000040000fa
:04016000c8010000d2
:020000040000fa
:04016400c8010000ce
:020000040000fa
:04016800c8010000ca
:020000040000fa
:04016c00c8010000c6
:020000040000fa
:04017000c8010000c2
:020000040000fa
:04017400c8010000be
:020000040000fa
:04017800c8010000ba
:020000040000fa
:04017c00c8010000b6
:020000040000fa
:04018000c8010000b2
:020000040000fa
:04018400c8010000ae
:020000040000fa
:04018800c8010000aa
:020000040000fa
:04018c00c8010000a6
:020000040000fa
:04019000c8010000a2
:020000040000fa
:04019400c80100009e
:020000040000fa
:04019800c80100009a
:020000040000fa
:04019c00c801000096
:020000040000fa
:0401a000c801000092
:020000040000fa
:0401a400c80100008e
:020000040000fa
:0401a800c80100008a
:020000040000fa
:0401ac00c801000086
:020000040000fa
:0401b000c801000082
:020000040000fa
:0401b400c80100007e
:020000040000fa
:0401b800c80100007a
:020000040000fa
:0401bc00c801000076
:020000040000fa
:0401c000c801000072
:020000040000fa
:0401c400c80100006e
:020000040000fa
:0401c800c80100006a
:020000040000fa
:0401cc00c801000066
:020000040000fa
:0401d000c801000062
:020000040000fa
:0401d400c80100005e
:020000040000fa
:0401d800c80100005a
:020000040000fa
:100200006f8520000eff20000e0188000000000016
:10021000000020000000e000020032000001200089
:1002200020028800140007005b0007000000e000c7
:1002300003003a00a048200001002000020037001f
:100240000000200001002000810f7000010032003a
:1002500014000700000020000000e000020032004f
:100260000000020000000000400402000000000046
:100270000040da000000fe004440a90040022000d7
:100280000000e0000300320000002000a001880010
:100290004440a800000006008a1f78008b1f7800e9
:1002a0000000060091018800800478000000eb0047
:1002b0001a003700e284440032a0b4009905ba0065
:1002c000e284440032a0b4009906ba00e2844400fb
:1002d00032a0b4000006eb00476fde00fd07b2005d
:1002e000636ce10003003a00ebff07000000eb0045
:1002f0000a003700606ce10004003a00005deb008a
:100300008b05e900fdff3e00040037006168e10055
:10031000010032000086eb000b00070019c7ba008d
:100320001905ba000e04e00003003a000a00e000dc
:10033000e0ff3a0000000600fe07b2009e018800c0
:100340008a047800f5ff3700395dba008b05e900b3
:100350000c003200295dba008b05e900080032006c
:100360000c00e00003003a00e284440032a0b40034
:10037000f5ff370019ddba008b05e900faff3a00f6
:100380008904e800e184440032a0b40000000600c3
:100390000040da000000fe00000005006022b80006
:1003a000060220000000d0008180d2000482d2002a
:1003b0008582d2000000a0000202520083825a000f
:1003c000030031000202420083824a000000a100c3
:1003d0000603e900f3ff3a0000000600efff070004
:0803e0000400be00000006004d
:020000040000fa
:1003e80064610000746f0000733a00000069000047
:1003f8006e690000636900006f20000064650000fa
:1004080020740000726100006e7300006d690000c6
:10041800736900006f6e0000000000004461000076
:08042800746f00003a000000af
:020000040000fa
:100430000000fa000de2a8000da2a9000d42a800dc
:100440000ce2a9000cc2a9000ca2a9006110800056
:1004500090ff2f0000806000601088000c02a9004f
:1004600000022000a0108800c1048000f0f82f00d6
:10047000808060000005200001007000c00488003a
:100480008520a9008d20a9000fe2a8000f62a90015
:100490000f42a8000f22a9000f02a90071108000ce
:1004a000f0f32f0000806000701088000e82a90019
:1004b0000ea2a9000e62a9000e62a9000e22a900d8
:1004c0000e02a9000080fa00000006000000fa00f9
:1004d00017e2a80017a2a90016e2a90016c2a900f7
:1004e00016a2a900b110800090ff2f0000806000cc
:1004f000b01088001602a90000022000f010880049
:100500000105800080ff2f00008060005000b300d4
:10051000000588008700a9008f00a90019e2a80043
:100520001962a9001942a8001922a9001902a900fc
:10053000c1108000f0f32f0000806000c010880020
:100540001882a90018a2a9001862a9001862a900bf
:100550001822a9001802a9000080fa000000060075
:100560000200fa00004f78000000000071108000c7
:1005700000202000008060000000e000fbff3a0047
:100580001e80fb00801088000080fa00000006003a
:100590000200fa00004f780000000000c110800047
:1005a00000202000008060000000e000fbff3a0017
:1005b0001e80fb00d01088000080fa0000000600ba
:1005c0000000fa0070108000620060000000e0008f
:1005d000070032000e22a9000e02a8000000000051
:1005e00070108000610060000000e000fcff32003d
:1005f00090108000004078000080fa0000000600a3
:100600000000fa00c0108000620060000000e000fe
:10061000070032001822a9001802a80000000000fc
:10062000c0108000610060000000e000fcff3200ac
:10063000e0108000004078000080fa000000060012
:100640000200fa00000f7800040037001e00780056
:1006500010407800c2ff07001e0fe8001e0078005f
:10066000104078000004e000f8ff3a000080fa0033
:10067000000006000200fa00000f780004003700b6
:100680001e00780010407800c1ff07001e0fe80030
:100690001e007800104078000004e000f8ff3a00e7
:1006a0000080fa00000006000800fa00640147001c
:1006b0000089be000000eb00000f78008000eb0016
:1006c0000e80e8000108780013003700640047003e
:1006d0001000be00a2002000030020003fff070022
:1006e000004078000043b00080407800c0822000c5
:1006f0001e00400001487800640047001000be0062
:10070000a20020000300200024ff0700640147002e
:100710000089be001e0fe800640047001000be0004
:10072000e00f5000e08f5800e8ff3a000f0037005c
:100730009e00e900c08220000080400090407800c8
:100740000e80e800100178001084200000004100b5
:10075000014878000e80e800100078008000e80072
:100760000e80e800010878001e0fe9009e00e900f5
:10077000c082200000804000104078000004e000ab
:10078000ebff3a0020212800baff07001084200068
:10079000b8ff0700d0c0b3007dff0700a0c0b300c2
:1007a0007bff07000000eb00000f78000900370016
:1007b000108420001e0040008040eb0001487800bb
:1007c000c08220001e0040008040eb0001487800fd
:1007d0001e0fe8001e007800f40f5000f4ff3400f4
:1007e0000080fa00000006000200fa0074ff070013
:1007f00000e8b7005241800001802000914078005d
:100800001080200000004100014878005041800025
:100810000000e8005041880000c8bf00ea4f5000c7
:1008200015003a00401f280085ff070010802000b7
:1008300083ff07002a28ef00003e29004100200026
:10084000260007000000eb00000f780005003700cd
:10085000108020001e0040008040eb00014878001e
:100860001e0fe800108020001e004000104078009d
:100870000004e000f6ff3a000080fa0000000600e5
:100880000200fa00d902a900cde2a900d222a900f3
:10089000e7fe07000dff070000382c00911c200028
:1008a0000e000700b01f280065ff0700a0c0b300be
:1008b0002bff07000000eb00000f7800010037005d
:1008c0000000000070108000610060000000e00087
:0c08d000fbff3200c4ff0700faff3700f6
:020000040000fa
:1008dc00f03fb1000180b10006003500ee030900c5
:1008ec0000000000403fb1000180b100fbff3d0063
:1008fc001000b000203fb00002003500008009005d
:08090c000000000000000600dd
:020000040000fa
:100914002c0800002a00000000000000000800006d
:0c0924002c00000000000000000000009b
:020000040000fa
:0200000401f009
:040000000383000076
:020000040000fa
:0200000401f009
:040004003f000000b9
:020000040000fa
:0200000401f009
:04000800b2870000bb
:020000040000fa
:0200000401f009
:04001400ffffff00eb
:00000001FF
